:1000000045C0000060C000005EC000005CC0000091
:100010005AC0000058C0000056C0000054C0000084
:1000200052C0000050C000004EC000004CC0000094
:100030004AC0000048C0000046C0000044C00000A4
:1000400042C0000040C000003EC000003CC00000B4
:100050003AC0000038C0000036C0000034C00000C4
:100060004CC1000030C000002EC000002CC00000B9
:100070002AC0000028C0000026C0000024C00000E4
:1000800022C0000020C000001EC0000011241FBEBE
:10009000CFEFD0E4DEBFCDBF11E0A0E0B1E0E8E3F8
:1000A000FCE000E00BBF02C007900D92A430B10746
:1000B000D9F724E0A4E0B1E001C01D92A032B2075C
:1000C000E1F789D1B7C59CCF11B882B112B88FE9D9
:1000D00080937A000895CF93C82F24E630E084E619
:1000E00090E00197F1F721503109C9F784E690E0DB
:1000F0009093820180938101909384018093830186
:1001000044E062E088E36DD288B1887F88B928E254
:1001100030E084E690E00197F1F721503109C9F70A
:1001200084E690E0909382018093810188E290E0E0
:10013000909384018093830145E062E08C2F51D23B
:100140008AEF90E000000197E9F788B1887F88B9CD
:10015000CF91089544E062E044D284E600008150EB
:10016000E9F788B1887F88B908950F931F93CF93DB
:10017000DF93CDB7DEB79E01295F3F4FF901419173
:1001800051919F0165E170E084E091E06ED2809131
:100190000401882341F005E011E09DDFF801819121
:1001A0008F018111FACFDF91CF911F910F910895A7
:1001B00011D287B1876087B93D9824E630E084E6A4
:1001C00090E00197F1F721503109C9F784E690E0FA
:1001D00090938201809381019093840180938301A5
:1001E00044E062E088E3FDD188B1887F88B928E2E5
:1001F00030E084E690E00197F1F721503109C9F72A
:1002000084E690E0909382018093810188E290E0FF
:10021000909384018093830144E062E088E3E1D11C
:1002200088B1887F88B928E230E084E690E00197C1
:10023000F1F721503109C9F784E690E090938201EB
:100240008093810188E290E0909384018093830100
:1002500044E062E088E3C5D188B1887F88B928E2AC
:1002600030E084E690E00197F1F721503109C9F7B9
:1002700084E690E0909382018093810188E290E08F
:1002800090938401809383018FE064DF81E062CFEB
:100290000895282F392F30931A012093190142E035
:1002A00068E080959EC1089595D180E090E0F1CFFF
:1002B00008952091190130911A01822B932B90936C
:1002C0001A01809319018091190190911A01E1CFCF
:1002D000089542E060E185C108958095909185017F
:1002E00089238093850190E0F4CF089573D1109213
:1002F00085018FEF90E0F1CF08951F920F920FB616
:100300000F9211240BB60F922F933F935F936F932D
:100310007F938F939F93AF93BF93EF93FF93E0915E
:100320008601F0918701209178008091790090E01A
:10033000982F8827820F911DEE0FFF1FE857FE4F61
:10034000918380838091860190918701019690939B
:10035000870180938601809186019091870108979B
:1003600024F010928701109286018091860190916D
:1003700087018770806480937C00EAE7F0E08081E9
:100380008064808380911B0190911C0120918801E1
:1003900030918901FC01EE0FFF1FE35DFE4F3183B9
:1003A0002083019664E170E039D190931C01809321
:1003B0001B01FF91EF91BF91AF919F918F917F9121
:1003C0006F915F913F912F910F900BBE0F900FBED9
:1003D0000F901F901895109287011092860164DF8C
:1003E00073DE5AD03FD0E4DE81DF8BD082E090E034
:1003F00060DF789408E811E0C0E0D1E02FE38DE001
:1004000093E0215080409040E1F700C0000081E07F
:10041000A1DEF801848595859F938F93DF93CF9319
:10042000A4DEF801848195819F938F93DF93CF930E
:100430009CDEF801868197819F938F93DF93CF9302
:1004400094DEF801868597859F938F93DF93CF93F2
:100450008CDE8DB79EB740960FB6F8949EBF0FBE48
:100460008DBFCCCF8AB180638AB98BB180638BB9E1
:1004700087B1806C87B9469A479881EA809380005B
:1004800083E080938100109289001092880010927E
:100490008B0010928A000895EF92FF920F931F93A2
:1004A000CF93DF938CE390E004DFEAE7F0E0808114
:1004B0008064808389B186FBEE24E0F8F12CF09211
:1004C0001E01E0921D0183B1082F017010E010930E
:1004D00056010093550183B182FB882780F9C82F0C
:1004E00080E0D82FD0937C01C0937B0110927601DD
:1004F00010927501DF91CF911F910F91FF90EF90B6
:1005000008951C9B32C083B18091230190912401F6
:100510008130910571F4E5E6F1E080819181A2815D
:10052000B3810196A11DB11D80839183A283B38302
:100530001CC0009771F4E5E6F1E080819181A28111
:10054000B3810197A109B10980839183A283B38309
:100550000CC0029751F4E5E6F1E080819181A2811F
:10056000B38180839183A283B3834B9B32C089B1D3
:1005700080917D0190917E018130910571F4E5E6D5
:10058000F1E084819581A681B7810196A11DB11DFD
:1005900084839583A683B7830895009771F4E5E675
:1005A000F1E084819581A681B7810197A109B10904
:1005B00084839583A683B7830895029751F4E5E673
:1005C000F1E084819581A681B78184839583A68398
:1005D000B783089587B18F6187B988B1807E88B964
:1005E000089598B1907E98B928E030E098B1582FDE
:1005F000551F5527551F952B98B998B1962B98B92B
:10060000880F98B1907E98B92150310979F788B157
:10061000482B48B988B1807E88B9089597FB072E8A
:1006200016F4009406D077FD08D00BD007FC05D057
:100630003EF4909581959F4F0895709561957F4FF9
:100640000895AA1BBB1B51E107C0AA1FBB1FA61719
:10065000B70710F0A61BB70B881F991F5A95A9F76B
:1006600080959095BC01CD0108950F931F93CF9372
:10067000DF93CDB7DEB72E970FB6F894DEBF0FBE6F
:10068000CDBF8C01FA0186E08C831A83098377FF42
:1006900002C060E070E8CB0101979E838D83A901C1
:1006A000BF01CE01019619D04D815E8157FD0AC070
:1006B0002F813885421753070CF49A01F801E20F95
:1006C000F31F10822E960FB6F894DEBF0FBECDBF7B
:1006D000DF91CF911F910F9108952F923F924F92EA
:1006E0005F926F927F928F929F92AF92BF92CF92C2
:1006F000DF92EF92FF920F931F93CF93DF93CDB7CB
:10070000DEB72B970FB6F894DEBF0FBECDBF6C01DE
:100710007B018A01FC0117821682838181FFBFC1A0
:10072000CE0101963C01F6019381F70193FD85917D
:1007300093FF81917F01882309F4ADC1853239F49B
:1007400093FD859193FF81917F01853221F4B6015C
:1007500090E0D6D1E8CF912C212C312CFFE1F3157C
:10076000D8F08B3279F038F4803279F08332A1F40A
:10077000232D20611DC08D3261F0803369F4232D5B
:10078000216016C0832D8260382EE32DE4603E2E5A
:100790002AC0F32DF8601DC037FC2DC020ED280FB6
:1007A0002A3040F08E32B9F436FC75C1232D206416
:1007B000322E19C036FE06C08AE0989E200D112404
:1007C000922E11C0EAE02E9E200D1124222EF32D30
:1007D000F0623F2E08C08C3621F4832D8068382EBD
:1007E00002C0883641F4F70193FD859193FF819112
:1007F0007F018111B3CF982F9F7D9554933028F4BA
:100800000C5F1F4F9FE399830DC0833631F0833710
:1008100071F0833509F055C020C0F80180818983CB
:100820000E5F1F4F88248394912C530112C028011E
:10083000F2E04F0E511CF801A080B18036FE03C0DB
:10084000692D70E002C06FEF7FEFC5014ED14C0102
:100850008201F32DFF773F2E15C0280122E0420EC2
:10086000511CF801A080B18036FE03C0692D70E0F4
:1008700002C06FEF7FEFC5012DD14C01F32DF06861
:100880003F2E820133FC19C0822D90E08816990614
:10089000A0F4B60180E290E033D12A94F5CFF501BF
:1008A00037FC859137FE81915F01B60190E028D138
:1008B00021102A9421E0821A91088114910479F779
:1008C000E1C0843611F0893639F5F80137FE07C0EA
:1008D00060817181828193810C5F1F4F08C06081AC
:1008E0007181072E000C880B990B0E5F1F4FF32DA3
:1008F000FF763F2E97FF09C0909580957095619582
:100900007F4F8F4F9F4FF0683F2E2AE030E0A301CA
:1009100033D1882E861844C0853731F4232D2F7E9D
:10092000B22E2AE030E025C0932D997FB92E8F3664
:10093000C1F018F4883579F0AEC0803719F08837E7
:1009400021F0A9C0E92FE061BE2EB4FE0DC0FB2D41
:10095000F460BF2E09C034FE0AC0292F2660B22ED3
:1009600006C028E030E005C020E130E002C020E110
:1009700032E0F801B7FE07C0608171818281938106
:100980000C5F1F4F06C06081718180E090E00E5FB8
:100990001F4FA301F1D0882E8618FB2DFF773F2E25
:1009A00036FE0DC0232D2E7FA22E891458F434FE5E
:1009B0000BC032FC09C0832D8E7EA82E05C0B82C3A
:1009C000A32C03C0B82C01C0B92CA4FE0FC0FE019B
:1009D000E80DF11D8081803321F49A2D997EA92E96
:1009E00009C0A2FE06C0B394B39404C08A2D8678D1
:1009F00009F0B394A3FC10C0A0FE06C0B21480F4AA
:100A0000280C922C9B180DC0B21458F4B60180E249
:100A100090E076D0B394F8CFB21418F42B1802C03B
:100A2000982C212CA4FE0FC0B60180E390E068D082
:100A3000A2FE16C0A1FC03C088E790E002C088E5D2
:100A400090E0B6010CC08A2D867851F0A1FE02C05C
:100A50008BE201C080E2A7FC8DE2B60190E050D0AD
:100A6000891430F4B60180E390E04AD09A94F8CF2C
:100A70008A94F301E80DF11D8081B60190E040D029
:100A80008110F6CF222009F44ECEB60180E290E02C
:100A900037D02A94F7CFF6018681978102C08FEF75
:100AA0009FEF2B960FB6F894DEBF0FBECDBFDF9140
:100AB000CF911F910F91FF90EF90DF90CF90BF905B
:100AC000AF909F908F907F906F905F904F903F90EE
:100AD0002F900895FC010590615070400110D8F7E7
:100AE000809590958E0F9F1F0895FC016150704076
:100AF00001900110D8F7809590958E0F9F1F089553
:100B00000F931F93CF93DF93FB01238121FD03C03C
:100B10008FEF9FEF2CC022FF16C0468157812481A2
:100B200035814217530744F4A081B1819D012F5FA5
:100B30003F4F318320838C93268137812F5F3F4F36
:100B40003783268314C08B01EC01FB010084F185FF
:100B5000E02D0995892BE1F6D80116968D919C918F
:100B60001797019617969C938E931697CE01DF9157
:100B7000CF911F910F910895FA01AA27283051F1C2
:100B8000203181F1E8946F936E7F6E5F7F4F8F4FBE
:100B90009F4FAF4FB1E03ED0B4E03CD0670F781F1D
:100BA000891F9A1FA11D680F791F8A1F911DA11D02
:100BB0006A0F711D811D911DA11D20D009F468943B
:100BC0003F912AE0269F11243019305D3193DEF6E3
:100BD000CF010895462F4770405D4193B3E00FD099
:100BE000C9F7F6CF462F4F70405D4A3318F0495D84
:100BF00031FD4052419302D0A9F7EACFB4E0A69567
:100C00009795879577956795BA95C9F70097610588
:100C1000710508959B01AC010A2E069457954795DE
:100C200037952795BA95C9F7620F731F841F951FD3
:080C3000A01D0895F894FFCF08
:040C380025346400FB
:00000001FF
